{
  "_format": "hh-sol-artifact-1",
  "contractName": "MedicalRecords",
  "sourceName": "contracts/MedicalRecords.sol",
  "abi": [
    {
      "anonymous": false,
      "inputs": [
        {
          "indexed": true,
          "internalType": "address",
          "name": "patientAddress",
          "type": "address"
        },
        {
          "indexed": false,
          "internalType": "string",
          "name": "name",
          "type": "string"
        }
      ],
      "name": "PatientRegistered",
      "type": "event"
    },
    {
      "anonymous": false,
      "inputs": [
        {
          "indexed": true,
          "internalType": "address",
          "name": "patient",
          "type": "address"
        },
        {
          "indexed": true,
          "internalType": "bytes32",
          "name": "recordHash",
          "type": "bytes32"
        }
      ],
      "name": "RecordAdded",
      "type": "event"
    },
    {
      "inputs": [
        {
          "internalType": "address",
          "name": "_patientAddress",
          "type": "address"
        },
        {
          "internalType": "string",
          "name": "_diagnosis",
          "type": "string"
        },
        {
          "internalType": "string",
          "name": "_prescription",
          "type": "string"
        },
        {
          "internalType": "string",
          "name": "_notes",
          "type": "string"
        },
        {
          "internalType": "string",
          "name": "_attachments",
          "type": "string"
        }
      ],
      "name": "addMedicalRecord",
      "outputs": [],
      "stateMutability": "nonpayable",
      "type": "function"
    },
    {
      "inputs": [
        {
          "internalType": "address",
          "name": "",
          "type": "address"
        }
      ],
      "name": "patients",
      "outputs": [
        {
          "internalType": "string",
          "name": "name",
          "type": "string"
        },
        {
          "internalType": "uint256",
          "name": "age",
          "type": "uint256"
        },
        {
          "internalType": "uint256",
          "name": "nationalId",
          "type": "uint256"
        },
        {
          "internalType": "bool",
          "name": "isRegistered",
          "type": "bool"
        }
      ],
      "stateMutability": "view",
      "type": "function"
    },
    {
      "inputs": [
        {
          "internalType": "string",
          "name": "_name",
          "type": "string"
        },
        {
          "internalType": "uint256",
          "name": "_age",
          "type": "uint256"
        },
        {
          "internalType": "uint256",
          "name": "_nationalId",
          "type": "uint256"
        }
      ],
      "name": "registerPatient",
      "outputs": [],
      "stateMutability": "nonpayable",
      "type": "function"
    },
    {
      "inputs": [
        {
          "internalType": "address",
          "name": "_patientAddress",
          "type": "address"
        },
        {
          "internalType": "bytes32",
          "name": "_recordHash",
          "type": "bytes32"
        }
      ],
      "name": "viewMedicalRecord",
      "outputs": [
        {
          "internalType": "string",
          "name": "diagnosis",
          "type": "string"
        },
        {
          "internalType": "string",
          "name": "prescription",
          "type": "string"
        },
        {
          "internalType": "string",
          "name": "notes",
          "type": "string"
        },
        {
          "internalType": "uint256",
          "name": "timestamp",
          "type": "uint256"
        },
        {
          "internalType": "address",
          "name": "doctor",
          "type": "address"
        },
        {
          "internalType": "string",
          "name": "attachments",
          "type": "string"
        }
      ],
      "stateMutability": "view",
      "type": "function"
    }
  ],
  "bytecode": "0x608060405234801561001057600080fd5b506112f1806100206000396000f3fe608060405234801561001057600080fd5b506004361061004c5760003560e01c80630869cfbc14610051578063125d8f5e146100845780636491c693146100b9578063afbf6a7b146100d5575b600080fd5b61006b6004803603810190610066919061095d565b6100f1565b60405161007b9493929190610a4e565b60405180910390f35b61009e60048036038101906100999190610ad0565b6101b6565b6040516100b096959493929190610b1f565b60405180910390f35b6100d360048036038101906100ce9190610cfd565b610497565b005b6100ef60048036038101906100ea9190610d6c565b61061f565b005b600060205280600052604060002060009150905080600001805461011490610e86565b80601f016020809104026020016040519081016040528092919081815260200182805461014090610e86565b801561018d5780601f106101625761010080835404028352916020019161018d565b820191906000526020600020905b81548152906001019060200180831161017057829003601f168201915b5050505050908060010154908060020154908060030160009054906101000a900460ff16905084565b6060806060600080606060008060008a73ffffffffffffffffffffffffffffffffffffffff1673ffffffffffffffffffffffffffffffffffffffff1681526020019081526020016000206005016000898152602001908152602001600020905080600001816001018260020183600301548460040160009054906101000a900473ffffffffffffffffffffffffffffffffffffffff168560060185805461025c90610e86565b80601f016020809104026020016040519081016040528092919081815260200182805461028890610e86565b80156102d55780601f106102aa576101008083540402835291602001916102d5565b820191906000526020600020905b8154815290600101906020018083116102b857829003601f168201915b505050505095508480546102e890610e86565b80601f016020809104026020016040519081016040528092919081815260200182805461031490610e86565b80156103615780601f1061033657610100808354040283529160200191610361565b820191906000526020600020905b81548152906001019060200180831161034457829003601f168201915b5050505050945083805461037490610e86565b80601f01602080910402602001604051908101604052809291908181526020018280546103a090610e86565b80156103ed5780601f106103c2576101008083540402835291602001916103ed565b820191906000526020600020905b8154815290600101906020018083116103d057829003601f168201915b5050505050935080805461040090610e86565b80601f016020809104026020016040519081016040528092919081815260200182805461042c90610e86565b80156104795780601f1061044e57610100808354040283529160200191610479565b820191906000526020600020905b81548152906001019060200180831161045c57829003601f168201915b50505050509050965096509650965096509650509295509295509295565b826000803373ffffffffffffffffffffffffffffffffffffffff1673ffffffffffffffffffffffffffffffffffffffff16815260200190815260200160002060000190816104e59190611063565b50816000803373ffffffffffffffffffffffffffffffffffffffff1673ffffffffffffffffffffffffffffffffffffffff1681526020019081526020016000206001018190555060016000803373ffffffffffffffffffffffffffffffffffffffff1673ffffffffffffffffffffffffffffffffffffffff16815260200190815260200160002060030160006101000a81548160ff021916908315150217905550806000803373ffffffffffffffffffffffffffffffffffffffff1673ffffffffffffffffffffffffffffffffffffffff168152602001908152602001600020600201819055503373ffffffffffffffffffffffffffffffffffffffff167fc85b128388b9c331a2a5485dce4cd0f3db9f7c279d327ce95d6d39d6c94644c7846040516106129190611135565b60405180910390a2505050565b6000808673ffffffffffffffffffffffffffffffffffffffff1673ffffffffffffffffffffffffffffffffffffffff16815260200190815260200160002060030160009054906101000a900460ff166106ad576040517f08c379a00000000000000000000000000000000000000000000000000000000081526004016106a4906111a3565b60405180910390fd5b600085858585426040516020016106c8959493929190611268565b60405160208183030381529060405280519060200120905060006040518060e001604052808781526020018681526020018581526020014281526020013373ffffffffffffffffffffffffffffffffffffffff168152602001838152602001848152509050806000808973ffffffffffffffffffffffffffffffffffffffff1673ffffffffffffffffffffffffffffffffffffffff168152602001908152602001600020600501600084815260200190815260200160002060008201518160000190816107959190611063565b5060208201518160010190816107ab9190611063565b5060408201518160020190816107c19190611063565b506060820151816003015560808201518160040160006101000a81548173ffffffffffffffffffffffffffffffffffffffff021916908373ffffffffffffffffffffffffffffffffffffffff16021790555060a0820151816005015560c08201518160060190816108329190611063565b509050506000808873ffffffffffffffffffffffffffffffffffffffff1673ffffffffffffffffffffffffffffffffffffffff168152602001908152602001600020600601829080600181540180825580915050600190039060005260206000200160009091909190915055818773ffffffffffffffffffffffffffffffffffffffff167fcd8d971de15defd5d6c1776f3e45f9ad8e646ee0a82d5601a1a90796634a1a0760405160405180910390a350505050505050565b6000604051905090565b600080fd5b600080fd5b600073ffffffffffffffffffffffffffffffffffffffff82169050919050565b600061092a826108ff565b9050919050565b61093a8161091f565b811461094557600080fd5b50565b60008135905061095781610931565b92915050565b600060208284031215610973576109726108f5565b5b600061098184828501610948565b91505092915050565b600081519050919050565b600082825260208201905092915050565b60005b838110156109c45780820151818401526020810190506109a9565b60008484015250505050565b6000601f19601f8301169050919050565b60006109ec8261098a565b6109f68185610995565b9350610a068185602086016109a6565b610a0f816109d0565b840191505092915050565b6000819050919050565b610a2d81610a1a565b82525050565b60008115159050919050565b610a4881610a33565b82525050565b60006080820190508181036000830152610a6881876109e1565b9050610a776020830186610a24565b610a846040830185610a24565b610a916060830184610a3f565b95945050505050565b6000819050919050565b610aad81610a9a565b8114610ab857600080fd5b50565b600081359050610aca81610aa4565b92915050565b60008060408385031215610ae757610ae66108f5565b5b6000610af585828601610948565b9250506020610b0685828601610abb565b9150509250929050565b610b198161091f565b82525050565b600060c0820190508181036000830152610b3981896109e1565b90508181036020830152610b4d81886109e1565b90508181036040830152610b6181876109e1565b9050610b706060830186610a24565b610b7d6080830185610b10565b81810360a0830152610b8f81846109e1565b9050979650505050505050565b600080fd5b600080fd5b7f4e487b7100000000000000000000000000000000000000000000000000000000600052604160045260246000fd5b610bde826109d0565b810181811067ffffffffffffffff82111715610bfd57610bfc610ba6565b5b80604052505050565b6000610c106108eb565b9050610c1c8282610bd5565b919050565b600067ffffffffffffffff821115610c3c57610c3b610ba6565b5b610c45826109d0565b9050602081019050919050565b82818337600083830152505050565b6000610c74610c6f84610c21565b610c06565b905082815260208101848484011115610c9057610c8f610ba1565b5b610c9b848285610c52565b509392505050565b600082601f830112610cb857610cb7610b9c565b5b8135610cc8848260208601610c61565b91505092915050565b610cda81610a1a565b8114610ce557600080fd5b50565b600081359050610cf781610cd1565b92915050565b600080600060608486031215610d1657610d156108f5565b5b600084013567ffffffffffffffff811115610d3457610d336108fa565b5b610d4086828701610ca3565b9350506020610d5186828701610ce8565b9250506040610d6286828701610ce8565b9150509250925092565b600080600080600060a08688031215610d8857610d876108f5565b5b6000610d9688828901610948565b955050602086013567ffffffffffffffff811115610db757610db66108fa565b5b610dc388828901610ca3565b945050604086013567ffffffffffffffff811115610de457610de36108fa565b5b610df088828901610ca3565b935050606086013567ffffffffffffffff811115610e1157610e106108fa565b5b610e1d88828901610ca3565b925050608086013567ffffffffffffffff811115610e3e57610e3d6108fa565b5b610e4a88828901610ca3565b9150509295509295909350565b7f4e487b7100000000000000000000000000000000000000000000000000000000600052602260045260246000fd5b60006002820490506001821680610e9e57607f821691505b602082108103610eb157610eb0610e57565b5b50919050565b60008190508160005260206000209050919050565b60006020601f8301049050919050565b600082821b905092915050565b600060088302610f197fffffffffffffffffffffffffffffffffffffffffffffffffffffffffffffffff82610edc565b610f238683610edc565b95508019841693508086168417925050509392505050565b6000819050919050565b6000610f60610f5b610f5684610a1a565b610f3b565b610a1a565b9050919050565b6000819050919050565b610f7a83610f45565b610f8e610f8682610f67565b848454610ee9565b825550505050565b600090565b610fa3610f96565b610fae818484610f71565b505050565b5b81811015610fd257610fc7600082610f9b565b600181019050610fb4565b5050565b601f82111561101757610fe881610eb7565b610ff184610ecc565b81016020851015611000578190505b61101461100c85610ecc565b830182610fb3565b50505b505050565b600082821c905092915050565b600061103a6000198460080261101c565b1980831691505092915050565b60006110538383611029565b9150826002028217905092915050565b61106c8261098a565b67ffffffffffffffff81111561108557611084610ba6565b5b61108f8254610e86565b61109a828285610fd6565b600060209050601f8311600181146110cd57600084156110bb578287015190505b6110c58582611047565b86555061112d565b601f1984166110db86610eb7565b60005b82811015611103578489015182556001820191506020850194506020810190506110de565b86831015611120578489015161111c601f891682611029565b8355505b6001600288020188555050505b505050505050565b6000602082019050818103600083015261114f81846109e1565b905092915050565b7f50617469656e74206e6f74207265676973746572656400000000000000000000600082015250565b600061118d601683610995565b915061119882611157565b602082019050919050565b600060208201905081810360008301526111bc81611180565b9050919050565b60008160601b9050919050565b60006111db826111c3565b9050919050565b60006111ed826111d0565b9050919050565b6112056112008261091f565b6111e2565b82525050565b600081905092915050565b60006112218261098a565b61122b818561120b565b935061123b8185602086016109a6565b80840191505092915050565b6000819050919050565b61126261125d82610a1a565b611247565b82525050565b600061127482886111f4565b6014820191506112848287611216565b91506112908286611216565b915061129c8285611216565b91506112a88284611251565b602082019150819050969550505050505056fea26469706673582212204c0bc2080e30fc9a651cb067cb3afc717f7fa5b976602f3fd915f2f2b503b83064736f6c63430008130033",
  "linkReferences": {},
  "deployedLinkReferences": {}
}